:1000000007308A00AC2F00001230C402031C1728EE
:10001000443084008313FC3080050310800C800C76
:1000200000080319172815280000800B1428080061
:10003000C001BF01C201C1010310390D203E84007F
:100040008313840A0008BE0084030008BD003A0838
:10005000F700031930280310BE0CBD0CF70B2B283A
:1000600006143E08C300C30AC30303193B28FF302C
:10007000C400042034283D08C40004203D08C10702
:100080003E0803183E0FC20706103E08C300C30A0D
:10009000C30303194F28FF30C400042048283D083B
:1000A000C40004203D08C1073E0803183E0FC207E4
:1000B0001930C1070318C20A4208023C0318752808
:1000C000FF3A031D67284108E73C03187528E8300C
:1000D000C1020330031C0430C202BF0A0319C00A64
:1000E0001930C1070318C20A5C2840083C02031CEF
:1000F0007F28031D30283B083F02031C30280800DE
:100100003A30840083130008031994280130F80062
:10011000F701F70B8928F80B88284A30F700F70B0E
:100120008F289228800B862808000430B900BA0076
:10013000BC019630BB0018203230BA008020043059
:10014000B900BA00BC019630BB0018209630BA0046
:1001500080200430B900BA00BC019630BB001820E2
:10016000C830BA008020B9010430BA00BC017D302B
:10017000BB0018203230BA0080200430B900BA0029
:10018000BC017D30BB0018209630BA0080200730BB
:10019000B9000430BA00BC01C830BB0018200230DE
:1001A000B900C830BA008020B90BD1280730B90097
:1001B0000330BA000130BC005E30BB0018200230B2
:1001C000B9009630BA008020B90BE128B801380890
:1001D000013C031CA429B9010430BA00BC01C83099
:1001E000BB001820C830BA0080200730B9000330A7
:1001F000BA00BC019630BB001820C830BA0080207D
:100200000430B9000330BA00BC01C830BB0018206C
:100210009630BA0080200930B9000330BA00BC0122
:10022000C830BB0018209630BA0080200B30B900CF
:100230000330BA00BC019630BB0018203230BA003F
:1002400080200A30B9000330BA00BC016430BB0022
:1002500018202830BA0080200930B9000330BA00D5
:10026000BC016430BB0018203C30BA00802007304D
:10027000B9000330BA00BC017830BB0018206430EC
:10028000BA0080200430B900BA00BC016E30BB0057
:1002900018206430BA0080200730B9000430BA005A
:1002A000BC016E30BB0018206E30BA0080200930CF
:1002B000B9000430BA00BC019630BB00182064308D
:1002C000BA0080200530B9000430BA00BC016E309D
:1002D000BB0018206430BA0080200730B900043019
:1002E000BA00BC016E30BB0018209630BA008020E6
:1002F0000430B900BA00BC016E30BB001820643075
:10030000BA008020B9010430BA00BC016E30BB00D5
:1003100018203230BA0080200230B9000430BA0010
:10032000BC017D30BB0018203230BA0080200B3079
:10033000B9000330BA00BC017D30BB001820C830C2
:10034000BA008020B80AE728B8013808013C031C2D
:10035000122B6430BA0080200730B9000430BA0094
:10036000BC019630BB0018207830BA0080200630DF
:10037000B9000430BA00BC017D30BB001820323017
:10038000BA0080200530B9000430BA00BC017D30CD
:10039000BB0018203230BA0080200330B90004308E
:1003A000BA00BC017D30BB0018206430BA00802048
:1003B0000430B900BA00BC019630BB00182064308C
:1003C000BA0080200830B9000330BA00BC017D308B
:1003D000BB0018206430BA0080200930B900033017
:1003E000BA00BC017D30BB0018206430BA00802008
:1003F000B9010430BA00BC019630BB001820963019
:10040000BA0080200930B9000330BA00BC017D3049
:10041000BB0018206430BA008020B9010430BA0053
:10042000BC017D30BB0018206430BA00802002304F
:10043000B9000430BA00BC019630BB0018209630D9
:10044000BA0080200730B9000430BA00BC019630F1
:10045000BB0018207830BA0080200630B900043084
:10046000BA00BC017D30BB0018203230BA008020B9
:100470000530B9000430BA00BC017D30BB00182043
:100480003230BA0080200330B9000430BA00BC0119
:100490007D30BB0018206430BA0080200430B900E1
:1004A000BA00BC019630BB0018206430BA0080202E
:1004B000B9010530BA00BC01C830BB001820323089
:1004C000BA008020B9010530BA00BC019630BB00EB
:1004D00018203230BA008020B9010530BA00BC01C2
:1004E0009630BB0018200230B9009630BA00802048
:1004F000B90B752A0730B9000430BA00BC01963038
:10050000BB0018207830BA0080200630B9000430D3
:10051000BA00BC017D30BB0018203230BA00802008
:100520000530B9000430BA00BC017D30BB00182092
:100530003230BA0080200330B9000430BA00BC0168
:100540007D30BB0018206430BA0080200430B90030
:10055000BA00BC019630BB0018206430BA0080207D
:100560000830B9000330BA00BC017D30BB00182050
:100570006430BA0080200930B9000330BA00BC01F1
:100580007D30BB0018206430BA008020B9010430EF
:10059000BA00BC019630BB0018209630BA0080200B
:1005A0000930B9000330BA00BC017D30BB0018200F
:1005B0006430BA008020B9010430BA00BC017D303B
:1005C000BB0018206430BA0080200230B90004302B
:1005D000BA00BC019630BB001820C830BA00802099
:1005E0000330B9000430BA00BC01C830BB00182089
:1005F0009630BA0080200230B9000430BA00BC0145
:10060000C830BB0018209630BA008020B9010430F1
:10061000BA00BC01C830BB001820FA30BA008020F4
:10062000B80AA529B9010430BA00BC018230BB0068
:1006300018203230BA008020B9010430BA00BC0161
:100640008230BB0018206430BA008020B901043029
:10065000BA00BC01C830BB0018208230BA0080202C
:10066000B9010430BA00BC019630BB0018206430D8
:10067000BA0080200230B9000430BA00BC018230D8
:10068000BB0018203230BA0080200430B900BA0014
:10069000BC019630BB0018203230BA008020B9016E
:1006A0000430BA00BC017D30BB0018203230BA00E3
:1006B00080200930B9000330BA00BC017D30BB0096
:1006C00018206430BA0080200730B9000330BA0027
:1006D000BC01C830BB001820C830BA008020B90166
:1006E0000430BA00BC018230BB0018203230BA009E
:1006F0008020B9010430BA00BC018230BB00182050
:100700006430BA008020B9010430BA00BC01C8309E
:10071000BB0018206430BA008020B9010430BA0050
:10072000BC017D30BB0018206430BA00802002304C
:10073000B9000430BA00BC017D30BB001820643021
:10074000BA0080200430B900BA00BC01C830BB0038
:1007500018200230B900C830BA008020B90BAB2B8A
:10076000B9010430BA00BC018230BB00182032301D
:10077000BA008020B9010430BA00BC018230BB004D
:1007800018206430BA008020B9010430BA00BC01DE
:10079000C830BB0018208230BA008020B901043074
:1007A000BA00BC019630BB0018206430BA0080202B
:1007B0000230B9000430BA00BC018230BB001820FE
:1007C0003230BA0080200430B900BA00BC01963043
:1007D000BB0018203230BA008020B9010430BA00C2
:1007E000BC017D30BB0018203230BA0080200930B7
:1007F000B9000330BA00BC017D30BB001820643062
:10080000BA0080200730B9000330BA00BC01C830FC
:10081000BB001820C830BA0080200430B900BA00EC
:10082000BC019630BB0018203230BA008020043062
:10083000B900BA00BC019630BB0018209630BA004F
:1008400080200430B900BA00BC019630BB001820EB
:10085000C830BA008020B9010430BA00BC017D3034
:10086000BB0018203230BA0080200430B900BA0032
:10087000BC017D30BB0018209630BA0080200730C4
:10088000B9000430BA00BC01C830BB0018200230E7
:10089000B900C830BA008020B90B492CB80138081B
:1008A000013C031C0C2DB9010430BA00BC01C83056
:1008B000BB001820C830BA0080200730B9000330D0
:1008C000BA00BC019630BB001820C830BA008020A6
:1008D0000430B9000330BA00BC01C830BB00182096
:1008E0009630BA0080200930B9000330BA00BC014C
:1008F000C830BB0018209630BA0080200B30B900F9
:100900000330BA00BC019630BB0018203230BA0068
:1009100080200A30B9000330BA00BC016430BB004B
:1009200018202830BA0080200930B9000330BA00FE
:10093000BC016430BB0018203C30BA008020073076
:10094000B9000330BA00BC017830BB001820643015
:10095000BA0080200430B900BA00BC016E30BB0080
:1009600018206430BA0080200730B9000430BA0083
:10097000BC016E30BB0018206E30BA0080200930F8
:10098000B9000430BA00BC019630BB0018206430B6
:10099000BA0080200530B9000430BA00BC016E30C6
:1009A000BB0018206430BA0080200730B900043042
:1009B000BA00BC016E30BB0018209630BA0080200F
:1009C0000430B900BA00BC016E30BB00182064309E
:1009D000BA008020B9010430BA00BC016E30BB00FF
:1009E00018203230BA0080200230B9000430BA003A
:1009F000BC017D30BB0018203230BA0080200B30A3
:100A0000B9000330BA00BC017D30BB001820C830EB
:100A1000BA008020B80A4F2C0430B900BA00BC01DB
:100A20007D30BB0018203230BA008020B90104307C
:100A3000BA00BC017D30BB0018204630BA008020CF
:100A40000730B9000330BA00BC01E630BB00182003
:100A50009630BA0080200830B9000330BA00BC01DB
:100A60009630BB0018209630BA0080200930B900BB
:100A70000330BA00BC017D30BB0018203230BA0010
:100A800080200530B9000430BA00BC017D30BB00C5
:100A900018203230BA0080200530B9000430BA0086
:100AA000BC017D30BB0018203230BA0080200930F4
:100AB000B9000330BA00BC01C830BB001820643054
:100AC000BA0080200B30B9000330BA00BC01DC3022
:100AD000BB0018206430BA0080200930B90004300F
:100AE000BA00BC019630BB0018206430BA008020E8
:100AF0000930B9000430BA00BC019630BB001820A0
:100B00006430BA0080200930B9000430BA00BC015A
:100B10009630BB0018203230BA0080200730B90070
:100B20000430BA00BC017D30BB0018203230BA005E
:100B300080200530B9000430BA00BC019630BB00FB
:100B400018206430BA0080200430B900BA00BC011B
:100B5000C830BB0018206430BA008020B9010430CE
:100B6000BA00BC019630BB0018206430BA00802067
:100B70000930B9000330BA00BC017D30BB00182039
:100B80004130BA0080200730B9000330BA00BC0100
:100B9000C830BB001820C830BA0080200430B9002B
:100BA000BA00BC017D30BB0018203230BA00802072
:100BB000B9010430BA00BC017D30BB0018204630BA
:100BC000BA0080200730B9000330BA00BC01E6301B
:100BD000BB0018209630BA0080200830B9000330DE
:100BE000BA00BC019630BB0018209630BA008020B5
:100BF0000930B9000330BA00BC017D30BB001820B9
:100C00003230BA0080200530B9000430BA00BC018F
:100C10007D30BB0018203230BA0080200530B9008A
:100C20000430BA00BC017D30BB0018203230BA005D
:100C300080200930B9000330BA00BC01C830BB00C5
:100C400018206430BA0080200B30B9000330BA009D
:100C5000BC01DC30BB0018206430BA0080200530B5
:100C6000B9000430BA00BC019630BB0018206430D3
:100C7000BA0080200530B9000430BA00BC019630BB
:100C8000BB0018206430BA0080200530B900043061
:100C9000BA00BC019630BB0018203230BA00802068
:100CA0000430B900BA00BC019630BB001820643093
:100CB000BA0080200230B9000430BA00BC017D3097
:100CC000BB0018204130BA008020B9010430BA00BE
:100CD000BC01C830BB001820C830BA008020B90160
:100CE0000430BA00BC018230BB0018203230BA0098
:100CF0008020B9010430BA00BC018230BB0018204A
:100D00006430BA008020B9010430BA00BC01C83098
:100D1000BB0018208230BA008020B9010430BA002C
:100D2000BC019630BB0018206430BA00802002302D
:100D3000B9000430BA00BC018230BB001820323048
:100D4000BA0080200430B900BA00BC019630BB0064
:100D500018203230BA008020B9010430BA00BC013A
:100D60007D30BB0018203230BA0080200930B90035
:100D70000330BA00BC017D30BB0018206430BA00DB
:100D800080200730B9000330BA00BC01C830BB0076
:100D90001820C830BA008020B9010430BA00BC0164
:100DA0008230BB0018203230BA008020B9010430F4
:100DB000BA00BC018230BB0018206430BA00802029
:100DC000B9010430BA00BC01C830BB00182064303F
:100DD000BA008020B9010430BA00BC017D30BB00EC
:100DE00018206430BA0080200230B9000430BA0004
:100DF000BC017D30BB0018206430BA008020043074
:100E0000B900BA00BC01C830BB0018200230B900DC
:100E1000C830BA008020B90B082FB9010430BA00DD
:100E2000BC018230BB0018203230BA008020B901EA
:100E30000430BA00BC018230BB0018206430BA0014
:100E40008020B9010430BA00BC01C830BB001820B2
:100E50008230BA008020B9010430BA00BC0196305B
:100E6000BB0018206430BA0080200230B900043082
:100E7000BA00BC018230BB0018203230BA0080209A
:100E80000430B900BA00BC019630BB0018203230E3
:100E9000BA008020B9010430BA00BC017D30BB002B
:100EA00018203230BA0080200930B9000330BA006F
:100EB000BC017D30BB0018206430BA0080200730B0
:100EC000B9000330BA00BC01C830BB001820C830DC
:100ED000BA0080200430B900BA00BC019630BB00D3
:100EE00018203230BA0080200430B900BA00BC01AA
:100EF0009630BB0018209630BA0080200430B9002C
:100F0000BA00BC019630BB001820C830BA0080205F
:100F1000B9010430BA00BC017D30BB00182032306A
:100F2000BA0080200430B900BA00BC017D30BB009B
:100F300018209630BA0080200730B9000430BA007B
:100F4000BC01C830BB0018200230B900C830BA005C
:100F50008020B90BA62FEA2F03081F3983008316C0
:100F60008E15073083129F008313B930A0003B30E9
:100F7000A1005E30A2003830A3003430A400353028
:100F8000A5003830A6003230A7006630A8002F3008
:100F9000A900BD30AA002C30AB003A30AC002A309A
:100FA000AD00DC30AE002730AF009F30B000253000
:100FB000B1008230B2002330B3008430B40021305D
:100FC000B500A330B6001F30B7000030831686008E
:060FD00083129528630066
:02400E00381F59
:00000001FF
;PIC16F628A
;CRC=5FC5  CREATED="24-May.-25 02:49"
