:020000040000FA
:10000000F928240882079F343D3402348D34DA34D1
:1000100000347F34DB3401347F34F33400347F34F4
:10002000F23400347734823400347F347A3400344C
:100030007734033401347F34A53405349F34C1341C
:1000400000349F34C13400348D34DA3400347F34CA
:10005000F23400347F34F23400347F34F23400342C
:100060007F34F234003477347F3400347F347A3490
:1000700000347734023401347F34A53405348D34B0
:10008000DA3400347F34F23400347734023401340B
:10009000683428340134683428340134683428340E
:1000A00001345E3447340134683492340034773498
:1000B000833400347F34F23400348D341634053404
:1000C0008D34DA3400347F34F2340034773402343F
:1000D00001346834283401346834283401346834F5
:1000E000283401345E34473401345434B434003499
:1000F0005E34A73400346834283401347734FB3458
:1001000001345E34A13400346834963400347734DA
:10011000023401347F34DB340134683492340034E7
:100120007734833400347F34F23400348D34163421
:1001300005349F343D3402348D34DA3400347F3456
:10014000F23400347F34F13400347F34F23400343C
:100150007F34F334003477347F3400347F347A349E
:1001600000347734033401347F34A43405348D34BF
:10017000A13400349F34623400348D34DA340034D6
:100180009F3482340434A50A25088207813442341E
:1001900024341834A5344234AA345534AA3455349E
:1001A0002434FF340034DB34243499348134423431
:1001B0002434993424345A34AA345534AA34553466
:1001C000243418346634DB34243499349934243498
:1001D0005A340134023404340834103420344034A6
:1001E0008034403420341034083404340234A501FF
:1001F00081348312031307309F00AA3085008316D1
:100200000313003085008312031383160313003099
:100210008600831203138601A401A5016400030173
:10022000C52086001F212921C0302402031D122968
:100230008601850134213421342134210B29012008
:10024000A000A40A0120A100A40A0120A200A40A7F
:100250000800A20A200838218509A10B2A29A20B2F
:100260002A29C32086000800A3013821A60B3429BF
:10027000A30000000000000064000000A30B392967
:02028000080074
:040282000034003410
:02400E00101F81
:00000001FF
