:020000040000FA
:040000008A15672EC8
:0A000600A03083120313F0000F3046
:10001000F100F201F3010800831203132230FC0007
:10002000F801F901FA01FB01FC030319422803104E
:10003000FB0CFA0CF90CF80CF30CF20CF10CF00CB4
:10004000031C1428FC03031934287408F8077508E6
:100050000318750FF90776080318760FFA07770863
:100060000318770FFB0718287408F807750803189A
:10007000750FF90776080318760FFA077708031843
:10008000770FFB07080083120313FB01FA01F90144
:10009000F801A001730DF80D7408F8027508031C2F
:1000A000750FF9027608031C760FFA027708031C15
:1000B000770FFB020301031C0130A002F30D073090
:1000C000FC00730DF80DF90DFA0DFB0DA00D740871
:1000D000731C7C28F8027508031C750FF90276085A
:1000E000031C760FFA027708031C770FFB0203014B
:1000F000031C0130A0028D28F80775080318750F3E
:10010000F90776080318760FFA0777080318770FB0
:10011000FB07030103180130A007F30DFC0B612856
:10012000720DF80DF90DFA0DFB0DA00D7408731C7E
:10013000AB28F8027508031C750FF9027608031C3A
:10014000760FFA027708031C770FFB020301031CEA
:100150000130A002BC28F80775080318750FF907CD
:1001600076080318760FFA0777080318770FFB074E
:10017000030103180130A007F20D0730FC00720DD7
:10018000F80DF90DFA0DFB0DA00D7408721CDA289C
:10019000F8027508031C750FF9027608031C760F28
:1001A000FA027708031C770FFB020301031C0130DE
:1001B000A002EB28F80775080318750FF9077608F1
:1001C0000318760FFA0777080318770FFB07030168
:1001D00003180130A007F20DFC0BBF28710DF80DBC
:1001E000F90DFA0DFB0DA00D7408721C0929F80217
:1001F0007508031C750FF9027608031C760FFA02C6
:100200007708031C770FFB020301031C0130A002D7
:100210001A29F80775080318750FF90776080318E7
:10022000760FFA0777080318770FFB070301031807
:100230000130A007F10D0730FC00710DF80DF90D2C
:10024000FA0DFB0DA00D7408711C3829F802750811
:10025000031C750FF9027608031C760FFA02770863
:10026000031C770FFB020301031C0130A002492984
:10027000F80775080318750FF90776080318760F45
:10028000FA0777080318770FFB07030103180130FB
:10029000A007F10DFC0B1D29700DF80DF90DFA0DDD
:1002A000FB0DA00D7408711C6729F8027508031C6A
:1002B000750FF9027608031C760FFA027708031C03
:1002C000770FFB020301031C0130A0027829F80715
:1002D00075080318750FF90776080318760FFA07E3
:1002E00077080318770FFB07030103180130A007F5
:1002F000F00D0730FC00700DF80DF90DFA0DFB0D37
:10030000A00D7408701C9629F8027508031C750F5F
:10031000F9027608031C760FFA027708031C770FA0
:10032000FB020301031C0130A002A729F80775088E
:100330000318750FF90776080318760FFA07770880
:100340000318770FFB07030103180130A007F00D16
:10035000FC0B7B297018BA297408F8077508031874
:10036000750FF90776080318760FFA077708031850
:10037000770FFB07080083120313F801F90110300F
:10038000FC00710DF80DF90D7408F8027508031CD6
:10039000750FF9020318D3297408F80775080318B4
:1003A000750FF9070310F00DF10DFC0BC1290800C2
:1003B00083120313EF03EF036F08003C0318E529D2
:1003C000EF03000000000000DC2900000000000036
:1003D00000000000080083120313FB01FA01F90179
:1003E0008030F800F10CF00C031CFF297408F907A9
:1003F00075080318750FFA070318FB0A0310F01F9E
:10040000072A7408FA0775080318750FFB07FB0C19
:10041000FA0CF90CF80C031CF2297B08F3007A089B
:10042000F2007908F1007808F00008000320E830B5
:10043000F4000330F500F601F7010C207008831674
:10044000A8007108A9007208AA007308AB00200870
:10045000F4002108F500F601F70143207008831627
:10046000A8007108A9007208AA007308AB00700800
:10047000F5007108F6007208F7007308F800F80C30
:10048000F70CF60CF50CF813F80CF70CF60CF50C51
:10049000F8137508F0007608F1007708F200780884
:1004A000F300F30CF20CF10CF00CF3137008A40041
:1004B0007108A500032083162208F4002308F50024
:1004C000F601F7010C2083162408F9002508FA002C
:1004D000FB01FC010330F8007908F4007A08F5000C
:1004E0007B08F6007C08F700780803197E2AF40DD3
:1004F000F50DF60DF70D7410FF3E752A43207008B8
:100500008316A8007108A9007208AA007308AB003E
:100510000A30F4000030F5002408F0002508F1004E
:10052000BB2170088316A4007108A5000030710279
:10053000031D9C2A0330700203189F2AF92A831294
:100540005108840083162B08003C031DB12A2A0899
:10055000003C031DB12A2908003C031DB12A2808CC
:10056000003C0318F62A83125008800483162508DD
:100570000319CC2AA601A70100302702031DC22AB5
:10058000250826020318CC2A8312EF01D8218316EE
:10059000A60A0319A70ABC2A24088312EF00D8214F
:1005A0004F088005831625080319E82AA601A7012C
:1005B00000302702031DDE2A250826020318E82A38
:1005C0008312EF01D8218316A60A0319A70AD82A95
:1005D00024088312EF00D82101308316A802031CDF
:1005E000A902031CAA02031CAB02A22A83124F0811
:1005F00080050800831203135308213E840000087D
:1006000086006B08F0006C08F1000A30F40000303E
:10061000F500EB2170088316A0007108A100831279
:100620006D08F0006E08F1000A30F4000030F500AB
:10063000EB2170088316A2007108A3001622831212
:100640000313D30A04305302031C272BD3010800E1
:10065000831203134E088A004D088200080083129B
:1006600003135708A5005808A6005908A7005A0800
:10067000A8005B08A9005C08AA005D08AB005E0842
:10068000AC005F08AD006008AE006108AF00620812
:10069000B0006308B1006408B2006508B3006608E2
:1006A000B4006708B5006808B6006908B7006A08B2
:1006B000B8000800831203135708B9005808BA009D
:1006C0005908BB005A08BC005B08BD005C08BE00AE
:1006D0005D08BF005E08C0005F08C1006008C2007E
:1006E0006108C3006208C4006308C5006408C6004E
:1006F0006508C7006608C8006708C9006808CA001E
:100700006908CB006A08CC00080083120313D401E7
:100710005708540203189F2B5408253E84000008F4
:10072000EB00EC010030EC005408393E8400000876
:10073000ED00EE010030EE00FA22D40A882B08000A
:10074000303083120313D7004130D8003D30D90038
:100750004130DA004830DB005330DC005830DD0037
:100760004830DE005230DF005830E0006230E100F7
:100770006E30E2005830E3005230E4004130E500D2
:100780004930E6003C30E7004230E8008330E900C1
:100790007C30EA002F231630D7001530D8001630F1
:1007A000D9000B30DA000B30DB000B30DC000A30F4
:1007B000DD000B30DE002130DF000A30E0001530B4
:1007C000E1000B30E2000A30E3000B30E4000A30B5
:1007D000E5000A30E6000A30E7002D30E800163068
:1007E000E9000B30EA005A231430D70085236E301D
:1007F000D7006230D8005930D9005230DA00493081
:10080000DB004130DC006230DD006E30DE006E3037
:10081000DF007C30E0007B30E1008430E200E30167
:10082000E401E501E601E701E801E901EA012F231E
:100830000B30D7002130D8000B30D9001630DA0049
:100840001530DB002230DC000B30DD002130DE0013
:100850000B30DF002130E0000B30E1001630E20009
:10086000E301E401E501E601E701E801E901EA014C
:100870005A230C30D700852386010330FB002F302C
:10088000FC006D30FD00FD0B432CFC0B432CFB0BDF
:10089000432C0800523083120313D7005230D80083
:1008A0006230D9006230DA006E30DB006F30DC007D
:1008B0005830DD005930DE006E30DF008430E0005B
:1008C0006330E1006230E2005330E3004930E4007D
:1008D0004230E5005230E6005830E7006230E80070
:1008E0005930E9004A30EA002F232130D7000B307D
:1008F000D8004230D9001630DA001530DB0016304F
:10090000DC001530DD000A30DE000A30DF005A302E
:10091000E0002130E1000A30E2002130E3000A303B
:10092000E4002C30E5002130E6000A30E7002C30EE
:10093000E8002130E9000B30EA005A231430D700D8
:1009400085234230D7006230D8006E30D90049305C
:10095000DA006230DB006E30DC006230DD008430B3
:10096000DE005330DF006E30E0006230E1003030F6
:10097000E2003730E3003C30E4004030E50049302D
:10098000E6005330E7005C30E8006230E9006E308A
:10099000EA002F235A30D7004330D8001630D90050
:1009A0004230DA001530DB002230DC000A30DD0096
:1009B0002130DE000B30DF002D30E0002C30E10074
:1009C0000A30E2000B30E3000B30E4000B30E500AE
:1009D0000B30E6000B30E7000A30E8000B30E9008E
:1009E0000B30EA005A231430D70085237B30D70020
:1009F0008330D8009330D900A630DA00BA30DB005B
:100A0000C630DC00DD01DE01DF01E001E101E201D1
:100A1000E301E401E501E601E701E801E901EA019A
:100A20002F230B30D7000B30D8000B30D9000A3001
:100A3000DA000B30DB002C30DC00DD01DE01DF01F1
:100A4000E001E101E201E301E401E501E601E70182
:100A5000E801E901EA015A230630D700852386011F
:100A60000330FB002F30FC006D30FD00FD0B362DF8
:100A7000FC0B362DFB0B362D08006230831203135E
:100A8000D7006E30D8006230D9005030DA008330A1
:100A9000DB006E30DC006230DD006230DE006E3084
:100AA000DF006230E0006E30E1006230E20083304F
:100AB000E3007C30E4005930E5006230E600583055
:100AC000E7006F30E8007C30E9006E30EA002F2349
:100AD0001730D7000A30D8000B30D9001530DA00B3
:100AE0001530DB001530DC004330DD000B30DE005C
:100AF0000A30DF000A30E0000B30E1001630E2007F
:100B00001630E3005A30E4001630E5000B30E60002
:100B10000B30E7001630E8001630E9001630EA0026
:100B20005A231430D70085236230D7006230D800B2
:100B30006E30D9006230DA006E30DB006230DC00EB
:100B40009330DD008430DE00DF01E001E101E201ED
:100B5000E301E401E501E601E701E801E901EA0159
:100B60002F234330D7000B30D8000B30D9000A3088
:100B7000DA000B30DB001630DC001630DD002E30E2
:100B8000DE00DF01E001E101E201E301E401E50152
:100B9000E601E701E801E901EA015A230830D7003C
:100BA000852386010330FB002F30FC006D30FD00F3
:100BB000FD0BD82DFC0BD82DFB0BD82D0800633076
:100BC00083120313D7006F30D8006330D90053303D
:100BD000DA006330DB006F30DC006330DD0053305F
:100BE000DE009430DF009330E0007C30E1008430A0
:100BF000E2008430E3006330E4006F30E5006F30E2
:100C0000E6008430E7007C30E8006F30E9006330B4
:100C1000EA002F234430D7001630D8002D30D900F9
:100C20008830DA004430DB001630DC002D30DD0087
:100C30008930DE005A30DF002D30E0008830E100DE
:100C40005A30E2002D30E3008830E4005B30E500EC
:100C50002D30E6004430E7001630E8002D30E90082
:100C60004430EA005A231430D70085236F30D70070
:100C70006330D8005330D9009430DA009330DB0071
:100C8000B030DC009330DD007C30DE008430DF00EB
:100C9000A830E0008430E1006330E2005230E3002D
:100CA0006330E4005930E5004930E6004230E700A7
:100CB000E801E901EA012F231730D7002E30D800D0
:100CC0008830D9005B30DA002D30DB002E30DC00BC
:100CD0002D30DD002E30DE008830DF008830E0006F
:100CE0002D30E1002D30E2002D30E3004530E400EE
:100CF0001730E5002D30E6002E30E700E801E9016D
:100D0000EA015A231130D700852386010630FB0003
:100D10001330FC00AD30FD00FD0B8C2EFC0B8C2E37
:100D2000FB0B8C2E000000000800413083120313DF
:100D3000D7004030D8005230D9006230DA0052304B
:100D4000DB006230DC006230DD006E30DE006230DD
:100D5000DF005230E0006230E1006E30E2006230CD
:100D6000E3005930E4004930E5006230E6005830D5
:100D7000E7005230E8005230E9004930EA002F2302
:100D80001530D7000A30D8000A30D9001530DA0003
:100D90000A30DB000A30DC000B30DD000A30DE00F8
:100DA0001530DF000A30E0000A30E1000B30E200CD
:100DB0000B30E3001630E4001630E5000A30E600A0
:100DC0000B30E7002D30E8000A30E9000A30EA0075
:100DD0005A231430D70085234130D7004930D8003A
:100DE0005130D9005830DA006230DB006E30DC0060
:100DF0007B30DD008430DE007C30DF006E30E000D0
:100E00006230E1006E30E2007B30E3008330E400CA
:100E10007C30E5006E30E6006230E7006E30E800BE
:100E20007C30E9008430EA002F232130D7000A30DB
:100E3000D8000B30D9000A30DA002C30DB000B3040
:100E4000DC000B30DD001630DE001630DF0017301E
:100E5000E0002C30E1000B30E2000B30E3001630F4
:100E6000E4001630E5001630E6001630E7001630D4
:100E7000E8001530E9001630EA005A231430D70094
:100E800085236230D7005930D8005230D900DA01BA
:100E9000DB01DC01DD01DE01DF01E001E101E20156
:100EA000E301E401E501E601E701E801E901EA0106
:100EB0002F231630D7001630D8001630D900DA01AB
:100EC000DB01DC01DD01DE01DF01E001E101E20126
:100ED000E301E401E501E601E701E801E901EA01D6
:100EE0005A230330D700852386010330FB002F30BF
:100EF000FC006D30FD00FD0B7B2FFC0B7B2FFB0BF3
:100F00007B2F0800831203135508D1005608F10007
:100F10000130F00071080319912FF00D7010FF3EA1
:100F20008B2F7008D000F0097008CF008030550773
:100F300084007008800584137008800508008312FF
:100F40000313550803178D0083168C130C1483129A
:100F50000C08F0000800831603178C1CB12F00004A
:100F6000AB2F83120313550803178D000313560884
:100F700003178C0083168C130C150B08F0008B13D1
:100F800055308D00AA308D008C14F01BC92F8B13A7
:100F9000CA2F8B170C11080028238A110A1280000F
:100FA000840ACD0A0319CE0AF003031DCC2F0800D2
:100FB000213084002C3083120313F000CA30CD009E
:080FC0000E30CE00CC27080022
:040FC80000340034BD
:10100000413083120313D7003030D8004130D9006B
:101010004930DA003030DB005330DC004930DD008D
:101020005330DE005930DF005330E0004930E1003A
:101030004230E2003D30E3003730E4003D30E5006F
:101040004230E6004A30E7005330E8003D30E90026
:101050003730EA008A112F238A152C30D70015303B
:10106000D8001630D9002C30DA002D30DB001630D5
:10107000DC001630DD001630DE001630DF002C30CC
:10108000E0001630E1004430E2001730E300153094
:10109000E4001630E5001630E6001630E7001630A2
:1010A000E8002D30E9002130EA008A115A238A1520
:1010B0001430D7008A1185238A153030D70031309B
:1010C000D8006230D9005830DA005330DB00593094
:1010D000DC005330DD004A30DE005330DF004130A9
:1010E000E0004A30E1003D30E2003730E3003030CC
:1010F000E4004130E5004130E6003D30E70041309A
:10110000E8004930E9004130EA008A112F238A15AE
:101110000A30D7005A30D8002D30D9001630DA0006
:101120001630DB002D30DC002D30DD001630DE0007
:101130001630DF001630E0001630E1002130E2000A
:101140000B30E3001730E4001730E5001630E600FE
:101150001630E7001730E8001630E9001830EA00D2
:101160008A115A238A151430D7008A1185238A15CB
:101170002F30D7005330D8005230D9004A30DA002F
:101180005330DB005830DC005230DD004930DE00E7
:101190005330DF005930E0005330E1004930E200C5
:1011A0004230E3003D30E4004130E5005930E600D4
:1011B0005330E7004930E8004130E9004230EA00AE
:1011C0008A112F238A151630D7001730D800163011
:1011D000D9001630DA001530DB001530DC002C3079
:1011E000DD001630DE001630DF001630E00016306D
:1011F000E1001530E2001530E3002C30E400173038
:10120000E5001530E6002D30E7002130E8000B3016
:10121000E9002E30EA008A115A238A151430D700CB
:101220008A1185238A1586010330FB002F30FC00CC
:101230006D30FD00FD0B1A29FC0B1A29FB0B1A2936
:101240000800303083120313D7004130D8004130FA
:10125000D9005230DA004030DB003030DC00413061
:10126000DD004230DE004130DF004130E000483038
:10127000E1005230E2005930E3005230E4004930DE
:10128000E5004130E6004930E7003030E800313019
:10129000E9004130EA008A112F238A151630D70061
:1012A0001730D8001630D9000B30DA000A30DB00D6
:1012B0001730DC001730DD002D30DE001630DF0087
:1012C0000B30E0000B30E1001630E2000B30E300A1
:1012D0000B30E4001630E5001630E6001630E7006B
:1012E0001630E8001630E9001630EA008A115A2359
:1012F0008A151430D7008A1185238A154130D7000A
:101300005230D8004030D9003130DA004130DB00B3
:101310004230DC004130DD004930DE005230DF0079
:101320005930E0005230E1004930E2005C30E30027
:101330004130E400E501E601E701E801E901EA01E5
:101340008A112F238A151730D7000B30D8000B30A5
:10135000D9001730DA001630DB002D30DC001630F3
:10136000DD001630DE001730DF000B30E0000B3000
:10137000E1001630E2001730E3002D30E400E50113
:10138000E601E701E801E901EA018A115A238A1519
:101390000E30D7008A1185238A1586010330FB00A1
:1013A0002F30FC006D30FD00FD0BD429FC0BD4293F
:1013B000FB0BD42908002F3083120313D7004230CF
:1013C000D8004130D9004930DA004130DB003D30EF
:1013D000DC003730DD003730DE003730DF004930E9
:1013E000E0004A30E1005230E2004930E300413091
:1013F000E4003D30E5003030E6003030E7005330A7
:10140000E8005230E9005930EA008A112F238A158A
:101410002D30D7002D30D8001630D9001630DA0024
:101420001630DB001630DC002D30DD002D30DE0004
:101430002C30DF002E30E0001630E1001630E200E4
:101440001630E3001630E4002D30E5002D30E600C4
:101450002D30E7002D30E8001730E9001630EA00A3
:101460008A115A238A151430D7008A1185238A15C8
:101470005230D7004930D8004130D9003730DA0037
:101480003030DB003030DC003730DD004930DE004A
:101490003D30DF004230E000E101E201E301E40120
:1014A000E501E601E701E801E901EA018A112F23DC
:1014B0008A151630D7001630D8002D30D9002D30BF
:1014C000DA001630DB001730DC002D30DD002D3067
:1014D000DE002D30DF002D30E000E101E201E3010C
:1014E000E401E501E601E701E801E901EA018A1109
:1014F0005A238A150A30D7008A1185238A15860156
:101500000330FB002F30FC006D30FD00FD0B862A00
:10151000FC0B862AFB0B862A08003030831203134B
:10152000D7005230D8004930D9004130DA0030308D
:10153000DB003030DC005230DD004930DE0041306D
:10154000DF003730E0003730E1005930E200523040
:10155000E3004930E4003D30E5006230E6006230EF
:10156000E7005930E8004930E9005330EA008A11B9
:101570002F238A151630D7001630D8001630D90020
:101580001630DA005B30DB001430DC001630DD0092
:101590001630DE001630DF005B30E0001630E10070
:1015A0001630E2001730E3001630E4005B30E5004F
:1015B0001630E6001630E7001630E8001630E90075
:1015C0005A30EA008A115A238A151430D7008A113A
:1015D00085238A152F30D7005230D8004930D900E2
:1015E0004130DA003030DB003030DC005130DD00DB
:1015F0004930DE004130DF003730E0003730E100B5
:101600005930E2005130E3004930E4006230E50037
:101610006330E6006330E7006F30E8006330E900D4
:101620005930EA008A112F238A151630D700163058
:10163000D8001630D9001630DA005B30DB001630E7
:10164000DC001630DD001630DE001630DF005A30C8
:10165000E0001630E1001630E2001730E3001630EB
:10166000E4001630E5001630E6002D30E7001630B5
:10167000E8001630E9001730EA008A115A238A156B
:101680001430D7008A1185238A154930D70042309B
:10169000D8005230D9005130DA005230DB005130DE
:1016A000DC005130DD005230DE005230DF006330AC
:1016B000E0004130E1004930E2005230E3005930AF
:1016C000E4005830E5005930E6005930E700523068
:1016D000E8005230E9005230EA008A112F238A15BF
:1016E0001730D7005A30D8001630D9001730DA003A
:1016F0002D30DB001630DC001630DD002D30DE0032
:101700001630DF001630E0002230E1000B30E2003E
:101710005B30E3001630E4001630E5002D30E600C3
:101720001630E7001730E8002D30E9001630EA00E7
:101730008A115A238A151430D7008A1185238A15F5
:101740004930D7004830D8005230D9004930DA004B
:101750006330DB005130DC005230DD005230DE00FF
:101760005130DF005230E0005230E1005230E200F0
:101770006330E3004130E4004930E5005330E600D7
:101780005930E7005930E8005930E9005930EA0093
:101790008A112F238A151730D7001630D80017303A
:1017A000D9002D30DA002E30DB001630DC00173087
:1017B000DD002E30DE001630DF001630E0002D3068
:1017C000E1001630E2001630E3002230E4000B3076
:1017D000E5005A30E6001730E7001630E8002D30FB
:1017E000E9001630EA008A115A238A151430D7000E
:1017F0008A1185238A155230D7005230D8006330C1
:10180000D9006330DA005930DB004930DC00423067
:10181000DD00DE01DF01E001E101E201E301E401BD
:10182000E501E601E701E801E901EA018A112F2358
:101830008A151730D7002D30D8001630D900163051
:10184000DA001630DB001730DC002D30DD00DE0161
:10185000DF01E001E101E201E301E401E501E6016C
:10186000E701E801E901EA018A115A238A150730E4
:10187000D7008A1185238A1586010330FB002F309B
:10188000FC006D30FD00FD0B432CFC0B432CFB0BCF
:10189000432C0800833083120313D7006230D80032
:1018A0006E30D9006230DA008430DB006230DC0058
:1018B0006E30DD006230DE00A730DF009330E000E4
:1018C0008430E1007C30E2006E30E3006230E400FE
:1018D0005930E5005830E6009330E7005930E80011
:1018E0005230E9005030EA008A112F238A15213046
:1018F000D7000930D8002130D9000B30DA00213070
:10190000DB000A30DC002230DD000A30DE0021304E
:10191000DF000B30E0002130E1000B30E2002D3021
:10192000E3002C30E4002130E5000A30E6002130ED
:10193000E7000B30E8002130E9000B30EA008A11A3
:101940005A238A151430D7008A1185238A158430CA
:10195000D7005230D8009330D9003C30DA006E30D6
:10196000DB007C30DC009330DD008430DE00DF0102
:10197000E001E101E201E301E401E501E601E70143
:10198000E801E901EA018A112F238A152130D700E5
:101990000B30D8002230D9000A30DA002230DB00C8
:1019A0000A30DC002C30DD002F30DE00DF01E001EA
:1019B000E101E201E301E401E501E601E701E801FB
:1019C000E901EA018A115A238A150830D7008A11E1
:1019D00085238A1586010330FB002F30FC006D3013
:1019E000FD00FD0BF12CFC0BF12CFB0BF12C080086
:1019F0005A3083120313D7006330D8006230D90005
:101A00006E30DA007B30DB008430DC008430DD00B7
:101A10005330DE005930DF006230E0006230E10018
:101A20006E30E2006230E3005930E4005930E500E6
:101A30005330E6006230E7004030E8005330E90000
:101A40004A30EA008A112F238A150930D700143052
:101A5000D8002C30D9000A30DA000A30DB0015300B
:101A6000DC002C30DD000A30DE000B30DF001530EA
:101A7000E0002C30E1000A30E2000A30E3001530CB
:101A8000E4002C30E5001630E6001530E700153094
:101A9000E8001530E9001530EA008A115A238A154A
:101AA0001430D7008A1185238A155930D7003D306C
:101AB000D8004130D9008430DA009330DB00843024
:101AC000DC007C30DD008430DE006E30DF008430EE
:101AD000E0009330E1008430E2007B30E3008430AA
:101AE000E4006F30E5009330E600A730E700933064
:101AF000E8008D30E9009330EA008A112F238A151F
:101B00002C30D7001630D8004130D9001630DA001A
:101B10001430DB001530DC001630DD001630DE003E
:101B20004330DF001530E0001530E1001630E200F0
:101B30001530E3001530E4004330E5001530E600D1
:101B40001630E7001530E8001530E9001530EA00DE
:101B50008A115A238A151430D7008A1185238A15D1
:101B60007C30D7008430D8009330D9008430DA003C
:101B70007B30DB006E30DC006230DD005930DE008F
:101B80005230DF004C30E0005A30E1006330E200B8
:101B90006230E3006E30E4007B30E5008430E60024
:101BA0008430E7005330E8005930E9006230EA0041
:101BB0008A112F238A154230D7001530D8001530EE
:101BC000D9001530DA001530DB001530DC00153097
:101BD000DD001630DE001530DF001530E000093082
:101BE000E1001430E2002C30E3000A30E4000A3057
:101BF000E5001530E6002C30E7000A30E8000B3035
:101C0000E9001530EA008A115A238A151430D700EA
:101C10008A1185238A156230D7006E30D800623071
:101C2000D9005930DA005930DB005330DC00623023
:101C3000DD004030DE005330DF004A30E000593034
:101C4000E1003D30E2004130E300E401E501E6015E
:101C5000E701E801E901EA018A112F238A152C30F6
:101C6000D7000A30D8000A30D9001530DA002C30FD
:101C7000DB001630DC001530DD001530DE001530DD
:101C8000DF001530E0002C30E1001630E20041307A
:101C9000E300E401E501E601E701E801E901EA0109
:101CA0008A115A238A150D30D7008A1185238A1587
:101CB00086010330FB004930FC006630FD00FD0B5F
:101CC0005F2EFC0B5F2EFB0B5F2E000008008A11BD
:101CD000D8278A1583160313860107309C009001CC
:101CE0006E308F0005308312D500D6018A1182270D
:101CF0008A15FF30D5008A119F278A15F00A7008CF
:101D00000313D200FF30D5007008D6008A11AB272C
:101D10008A150330831203135202031CB02E831260
:101D2000031311308600F4308316A0000130A100A7
:101D3000F430A2000130A3008A1116228A15831202
:101D40000313860120308316A0000330A100F43075
:101D5000A2000130A3008A1116228A15902EF824C1
:101D60008A113D258A154A248A1195268A158A11D9
:101D7000A0238A158A114A248A1521210020DB21FB
:0C1D80008D228A11DF258A15B02EC62E98
:0C1D94001134223444348834003400340C
:101DA0000034003400340034003400340034003493
:101DB0000034003400340034003400340034003483
:101DC0000034003400340034003400340034003473
:101DD0000034003400340034003400340034003463
:0C1DE000003400340034003400340034BF
:02400E00311F60
:00000001FF
